{"abi":[{"type":"constructor","inputs":[{"name":"tokenAddresses","type":"address[]","internalType":"address[]"},{"name":"priceFeedAddresses","type":"address[]","internalType":"address[]"},{"name":"lcdAdress","type":"address","internalType":"address"}],"stateMutability":"nonpayable"},{"type":"function","name":"burnDsc","inputs":[{"name":"amount","type":"uint256","internalType":"uint256"}],"outputs":[],"stateMutability":"nonpayable"},{"type":"function","name":"burnDscAndRedeemCollateral","inputs":[{"name":"tokenCollateralAddress","type":"address","internalType":"address"},{"name":"amountCollateral","type":"uint256","internalType":"uint256"},{"name":"amountDSCToBurn","type":"uint256","internalType":"uint256"}],"outputs":[],"stateMutability":"nonpayable"},{"type":"function","name":"calculateHealthFactor","inputs":[{"name":"totalDscMinted","type":"uint256","internalType":"uint256"},{"name":"collateralValueInUsd","type":"uint256","internalType":"uint256"}],"outputs":[{"name":"","type":"uint256","internalType":"uint256"}],"stateMutability":"pure"},{"type":"function","name":"depositCollateral","inputs":[{"name":"tokenCollateralAddress","type":"address","internalType":"address"},{"name":"amountCollateral","type":"uint256","internalType":"uint256"}],"outputs":[],"stateMutability":"nonpayable"},{"type":"function","name":"depositCollateralAndMintDsc","inputs":[{"name":"tokenCollateralAddress","type":"address","internalType":"address"},{"name":"amountCollateral","type":"uint256","internalType":"uint256"},{"name":"amountDSCToMint","type":"uint256","internalType":"uint256"}],"outputs":[],"stateMutability":"nonpayable"},{"type":"function","name":"getAccountCollateralValue","inputs":[{"name":"user","type":"address","internalType":"address"}],"outputs":[{"name":"totalCollateralValueInUSD","type":"uint256","internalType":"uint256"}],"stateMutability":"view"},{"type":"function","name":"getAccountInformation","inputs":[{"name":"user","type":"address","internalType":"address"}],"outputs":[{"name":"totalDscMinted","type":"uint256","internalType":"uint256"},{"name":"collateralValueInUsd","type":"uint256","internalType":"uint256"}],"stateMutability":"view"},{"type":"function","name":"getCollateralDeposited","inputs":[{"name":"user","type":"address","internalType":"address"},{"name":"token","type":"address","internalType":"address"}],"outputs":[{"name":"","type":"uint256","internalType":"uint256"}],"stateMutability":"view"},{"type":"function","name":"getCollateralTokens","inputs":[],"outputs":[{"name":"","type":"address[]","internalType":"address[]"}],"stateMutability":"view"},{"type":"function","name":"getDSCMinted","inputs":[{"name":"user","type":"address","internalType":"address"}],"outputs":[{"name":"","type":"uint256","internalType":"uint256"}],"stateMutability":"view"},{"type":"function","name":"getHealthFactor","inputs":[{"name":"user","type":"address","internalType":"address"}],"outputs":[{"name":"","type":"uint256","internalType":"uint256"}],"stateMutability":"view"},{"type":"function","name":"getLiquidationThreshold","inputs":[],"outputs":[{"name":"","type":"uint256","internalType":"uint256"}],"stateMutability":"pure"},{"type":"function","name":"getMinHealthFactor","inputs":[],"outputs":[{"name":"","type":"uint256","internalType":"uint256"}],"stateMutability":"pure"},{"type":"function","name":"getPrecision","inputs":[],"outputs":[{"name":"","type":"uint256","internalType":"uint256"}],"stateMutability":"pure"},{"type":"function","name":"getPriceFeed","inputs":[{"name":"token","type":"address","internalType":"address"}],"outputs":[{"name":"","type":"address","internalType":"address"}],"stateMutability":"view"},{"type":"function","name":"getTokenAmountFromDSC","inputs":[{"name":"token","type":"address","internalType":"address"},{"name":"dscAmountInWei","type":"uint256","internalType":"uint256"}],"outputs":[{"name":"","type":"uint256","internalType":"uint256"}],"stateMutability":"view"},{"type":"function","name":"getUSDValue","inputs":[{"name":"token","type":"address","internalType":"address"},{"name":"amount","type":"uint256","internalType":"uint256"}],"outputs":[{"name":"","type":"uint256","internalType":"uint256"}],"stateMutability":"view"},{"type":"function","name":"liquidate","inputs":[{"name":"collateral","type":"address","internalType":"address"},{"name":"user","type":"address","internalType":"address"},{"name":"debtToCover","type":"uint256","internalType":"uint256"}],"outputs":[],"stateMutability":"nonpayable"},{"type":"function","name":"mintDsc","inputs":[{"name":"amountDSCToMint","type":"uint256","internalType":"uint256"}],"outputs":[],"stateMutability":"nonpayable"},{"type":"function","name":"redeemCollateral","inputs":[{"name":"tokenCollateralAddress","type":"address","internalType":"address"},{"name":"amountCollateral","type":"uint256","internalType":"uint256"}],"outputs":[],"stateMutability":"nonpayable"},{"type":"event","name":"CollateralDeposited","inputs":[{"name":"user","type":"address","indexed":true,"internalType":"address"},{"name":"token","type":"address","indexed":true,"internalType":"address"},{"name":"amount","type":"uint256","indexed":true,"internalType":"uint256"}],"anonymous":false},{"type":"event","name":"CollateralRedeemed","inputs":[{"name":"redeemedFrom","type":"address","indexed":true,"internalType":"address"},{"name":"redeemedTo","type":"address","indexed":true,"internalType":"address"},{"name":"token","type":"address","indexed":true,"internalType":"address"},{"name":"amount","type":"uint256","indexed":false,"internalType":"uint256"}],"anonymous":false},{"type":"event","name":"DSCBurned","inputs":[{"name":"amountDSCToBurn","type":"uint256","indexed":true,"internalType":"uint256"},{"name":"dscFrom","type":"address","indexed":true,"internalType":"address"},{"name":"onBehalfOf","type":"address","indexed":true,"internalType":"address"}],"anonymous":false},{"type":"event","name":"DSCMinted","inputs":[{"name":"user","type":"address","indexed":true,"internalType":"address"},{"name":"amountDSCMinted","type":"uint256","indexed":true,"internalType":"uint256"}],"anonymous":false},{"type":"error","name":"DSCEngine__AmountShouldBeMoreThanZero","inputs":[]},{"type":"error","name":"DSCEngine__BreaksHealthFactor","inputs":[{"name":"healthfactor","type":"uint256","internalType":"uint256"}]},{"type":"error","name":"DSCEngine__HealthFactorIsGood","inputs":[{"name":"healthfactor","type":"uint256","internalType":"uint256"}]},{"type":"error","name":"DSCEngine__HealthFactorNotImproved","inputs":[]},{"type":"error","name":"DSCEngine__MintFailed","inputs":[]},{"type":"error","name":"DSCEngine__NotAllowedTokenAddress","inputs":[]},{"type":"error","name":"DSCEngine__NotEnoughDSC","inputs":[]},{"type":"error","name":"DSCEngine__RedeemExceedsBalance","inputs":[]},{"type":"error","name":"DSCEngine__TokenAddressAndPriceFeedMustBeTheSameLength","inputs":[]},{"type":"error","name":"DSCEngine__TransferFailed","inputs":[]},{"type":"error","name":"ReentrancyGuardReentrantCall","inputs":[]}],"bytecode":{"object":"0x60a060405234801561000f575f5ffd5b506040516123e33803806123e383398181016040528101906100319190610455565b60015f819055508151835114610073576040517f3aafbaed00000000000000000000000000000000000000000000000000000000815260040160405180910390fd5b5f5f90505b835181101561025d575f848281518110610095576100946104dd565b5b602002602001015190505f8483815181106100b3576100b26104dd565b5b602002602001015190505f73ffffffffffffffffffffffffffffffffffffffff168273ffffffffffffffffffffffffffffffffffffffff16148061012257505f73ffffffffffffffffffffffffffffffffffffffff168173ffffffffffffffffffffffffffffffffffffffff16145b15610159576040517fca706c4e00000000000000000000000000000000000000000000000000000000815260040160405180910390fd5b8060015f8473ffffffffffffffffffffffffffffffffffffffff1673ffffffffffffffffffffffffffffffffffffffff1681526020019081526020015f205f6101000a81548173ffffffffffffffffffffffffffffffffffffffff021916908373ffffffffffffffffffffffffffffffffffffffff16021790555060048684815181106101e9576101e86104dd565b5b6020026020010151908060018154018082558091505060019003905f5260205f20015f9091909190916101000a81548173ffffffffffffffffffffffffffffffffffffffff021916908373ffffffffffffffffffffffffffffffffffffffff16021790555050508080600101915050610078565b508073ffffffffffffffffffffffffffffffffffffffff1660808173ffffffffffffffffffffffffffffffffffffffff168152505050505061050a565b5f604051905090565b5f5ffd5b5f5ffd5b5f5ffd5b5f601f19601f8301169050919050565b7f4e487b71000000000000000000000000000000000000000000000000000000005f52604160045260245ffd5b6102f5826102af565b810181811067ffffffffffffffff82111715610314576103136102bf565b5b80604052505050565b5f61032661029a565b905061033282826102ec565b919050565b5f67ffffffffffffffff821115610351576103506102bf565b5b602082029050602081019050919050565b5f5ffd5b5f73ffffffffffffffffffffffffffffffffffffffff82169050919050565b5f61038f82610366565b9050919050565b61039f81610385565b81146103a9575f5ffd5b50565b5f815190506103ba81610396565b92915050565b5f6103d26103cd84610337565b61031d565b905080838252602082019050602084028301858111156103f5576103f4610362565b5b835b8181101561041e578061040a88826103ac565b8452602084019350506020810190506103f7565b5050509392505050565b5f82601f83011261043c5761043b6102ab565b5b815161044c8482602086016103c0565b91505092915050565b5f5f5f6060848603121561046c5761046b6102a3565b5b5f84015167ffffffffffffffff811115610489576104886102a7565b5b61049586828701610428565b935050602084015167ffffffffffffffff8111156104b6576104b56102a7565b5b6104c286828701610428565b92505060406104d3868287016103ac565b9150509250925092565b7f4e487b71000000000000000000000000000000000000000000000000000000005f52603260045260245ffd5b608051611eac6105375f395f818161051101528181610e7c0152818161123e015261136f0152611eac5ff3fe608060405234801561000f575f5ffd5b506004361061012a575f3560e01c80638c1ae6c8116100ab578063c9b7c3271161006f578063c9b7c32714610367578063e90db8a314610383578063f68766081461039f578063fa76dcf2146103bb578063fe6bcd7c146103eb5761012a565b80638c1ae6c8146102d55780639670c0bc146102f35780639acd81b314610311578063a5d5db0c1461032d578063b58eb63f146103495761012a565b80634b9085af116100f25780634b9085af146101f8578063536de245146102285780635b6cca80146102445780637be564fc146102745780637d1a4450146102a55761012a565b806301f728841461012e5780630b57837d1461015e57806326c013031461018e57806330adffde146101aa5780634ae9b8bc146101da575b5f5ffd5b61014860048036038101906101439190611768565b61041b565b60405161015591906117b5565b60405180910390f35b61017860048036038101906101739190611828565b61042e565b60405161018591906117b5565b60405180910390f35b6101a860048036038101906101a39190611853565b610474565b005b6101c460048036038101906101bf91906118a3565b61068f565b6040516101d191906117b5565b60405180910390f35b6101e26107be565b6040516101ef91906117b5565b60405180910390f35b610212600480360381019061020d91906118e1565b6107c6565b60405161021f91906117b5565b60405180910390f35b610242600480360381019061023d919061191f565b610848565b005b61025e60048036038101906102599190611828565b610860565b60405161026b919061197e565b60405180910390f35b61028e60048036038101906102899190611828565b6108c5565b60405161029c929190611997565b60405180910390f35b6102bf60048036038101906102ba9190611828565b6108dd565b6040516102cc91906117b5565b60405180910390f35b6102dd6109d7565b6040516102ea91906117b5565b60405180910390f35b6102fb6109e6565b60405161030891906117b5565b60405180910390f35b61032b600480360381019061032691906118a3565b6109f5565b005b610347600480360381019061034291906118a3565b610a50565b005b610351610d0c565b60405161035e9190611a75565b60405180910390f35b610381600480360381019061037c9190611a95565b610d97565b005b61039d6004803603810190610398919061191f565b610f5b565b005b6103b960048036038101906103b49190611a95565b610f73565b005b6103d560048036038101906103d091906118a3565b610fcc565b6040516103e291906117b5565b60405180910390f35b61040560048036038101906104009190611828565b6110fb565b60405161041291906117b5565b60405180910390f35b5f610426838361110c565b905092915050565b5f60035f8373ffffffffffffffffffffffffffffffffffffffff1673ffffffffffffffffffffffffffffffffffffffff1681526020019081526020015f20549050919050565b805f81036104ae576040517fd29f97bf00000000000000000000000000000000000000000000000000000000815260040160405180910390fd5b6104b6611181565b5f6104c0846111c5565b9050670de0b6b3a7640000811061050e57806040517ffe4b71d500000000000000000000000000000000000000000000000000000000815260040161050591906117b5565b60405180910390fd5b827f000000000000000000000000000000000000000000000000000000000000000073ffffffffffffffffffffffffffffffffffffffff166370a08231336040518263ffffffff1660e01b8152600401610568919061197e565b602060405180830381865afa158015610583573d5f5f3e3d5ffd5b505050506040513d601f19601f820116820180604052508101906105a79190611ad4565b10156105df576040517f7c4f1ce500000000000000000000000000000000000000000000000000000000815260040160405180910390fd5b5f6105ea868561068f565b90505f6064600a836105fc9190611b2c565b6106069190611b9a565b90505f81836106159190611bca565b90506106228633896111e8565b61062e888289336113f9565b5f610638886111c5565b9050848111610673576040517f7c28362000000000000000000000000000000000000000000000000000000000815260040160405180910390fd5b61067c33611679565b50505050506106896116d6565b50505050565b5f5f60015f8573ffffffffffffffffffffffffffffffffffffffff1673ffffffffffffffffffffffffffffffffffffffff1681526020019081526020015f205f9054906101000a900473ffffffffffffffffffffffffffffffffffffffff1690505f8173ffffffffffffffffffffffffffffffffffffffff1673__$1f06ac8d622ce42796cee98ba1044ce165$__632ba1c96a90916040518263ffffffff1660e01b81526004016107409190611c58565b60a060405180830381865af415801561075b573d5f5f3e3d5ffd5b505050506040513d601f19601f8201168201806040525081019061077f9190611ce3565b5050509150506402540be400816107969190611b2c565b670de0b6b3a7640000856107aa9190611b2c565b6107b49190611b9a565b9250505092915050565b5f6050905090565b5f60025f8473ffffffffffffffffffffffffffffffffffffffff1673ffffffffffffffffffffffffffffffffffffffff1681526020019081526020015f205f8373ffffffffffffffffffffffffffffffffffffffff1673ffffffffffffffffffffffffffffffffffffffff1681526020019081526020015f2054905092915050565b61085181610f73565b61085b83836109f5565b505050565b5f60015f8373ffffffffffffffffffffffffffffffffffffffff1673ffffffffffffffffffffffffffffffffffffffff1681526020019081526020015f205f9054906101000a900473ffffffffffffffffffffffffffffffffffffffff169050919050565b5f5f6108d0836116df565b8092508193505050915091565b5f5f5f90505b6004805490508110156109d1575f6004828154811061090557610904611d5a565b5b905f5260205f20015f9054906101000a900473ffffffffffffffffffffffffffffffffffffffff1690505f60025f8673ffffffffffffffffffffffffffffffffffffffff1673ffffffffffffffffffffffffffffffffffffffff1681526020019081526020015f205f8373ffffffffffffffffffffffffffffffffffffffff1673ffffffffffffffffffffffffffffffffffffffff1681526020019081526020015f205490506109b58282610fcc565b846109c09190611bca565b9350505080806001019150506108e3565b50919050565b5f670de0b6b3a7640000905090565b5f670de0b6b3a7640000905090565b805f8103610a2f576040517fd29f97bf00000000000000000000000000000000000000000000000000000000815260040160405180910390fd5b610a37611181565b610a43838333336113f9565b610a4b6116d6565b505050565b805f8103610a8a576040517fd29f97bf00000000000000000000000000000000000000000000000000000000815260040160405180910390fd5b825f73ffffffffffffffffffffffffffffffffffffffff1660015f8373ffffffffffffffffffffffffffffffffffffffff1673ffffffffffffffffffffffffffffffffffffffff1681526020019081526020015f205f9054906101000a900473ffffffffffffffffffffffffffffffffffffffff1673ffffffffffffffffffffffffffffffffffffffff1603610b4c576040517fca706c4e00000000000000000000000000000000000000000000000000000000815260040160405180910390fd5b610b54611181565b8260025f3373ffffffffffffffffffffffffffffffffffffffff1673ffffffffffffffffffffffffffffffffffffffff1681526020019081526020015f205f8673ffffffffffffffffffffffffffffffffffffffff1673ffffffffffffffffffffffffffffffffffffffff1681526020019081526020015f205f828254610bdb9190611bca565b92505081905550828473ffffffffffffffffffffffffffffffffffffffff163373ffffffffffffffffffffffffffffffffffffffff167ff1c0dd7e9b98bbff859029005ef89b127af049cd18df1a8d79f0b7e019911e5660405160405180910390a45f8473ffffffffffffffffffffffffffffffffffffffff166323b872dd3330876040518463ffffffff1660e01b8152600401610c7b93929190611d87565b6020604051808303815f875af1158015610c97573d5f5f3e3d5ffd5b505050506040513d601f19601f82011682018060405250810190610cbb9190611df1565b905080610cf4576040517f4dc34d1700000000000000000000000000000000000000000000000000000000815260040160405180910390fd5b610cfd33611679565b50610d066116d6565b50505050565b60606004805480602002602001604051908101604052809291908181526020018280548015610d8d57602002820191905f5260205f20905b815f9054906101000a900473ffffffffffffffffffffffffffffffffffffffff1673ffffffffffffffffffffffffffffffffffffffff1681526020019060010190808311610d44575b5050505050905090565b805f8103610dd1576040517fd29f97bf00000000000000000000000000000000000000000000000000000000815260040160405180910390fd5b610dd9611181565b8160035f3373ffffffffffffffffffffffffffffffffffffffff1673ffffffffffffffffffffffffffffffffffffffff1681526020019081526020015f205f828254610e259190611bca565b92505081905550610e3533611679565b813373ffffffffffffffffffffffffffffffffffffffff167f482e6c2d72037ca393bf379db420e0679785f34cfd7f9f613922455ef91be61860405160405180910390a35f7f000000000000000000000000000000000000000000000000000000000000000073ffffffffffffffffffffffffffffffffffffffff166340c10f1933856040518363ffffffff1660e01b8152600401610ed5929190611e1c565b6020604051808303815f875af1158015610ef1573d5f5f3e3d5ffd5b505050506040513d601f19601f82011682018060405250810190610f159190611df1565b905080610f4e576040517f30eb0fc900000000000000000000000000000000000000000000000000000000815260040160405180910390fd5b50610f576116d6565b5050565b610f658383610a50565b610f6e81610d97565b505050565b805f8103610fad576040517fd29f97bf00000000000000000000000000000000000000000000000000000000815260040160405180910390fd5b610fb5611181565b610fc08233336111e8565b610fc86116d6565b5050565b5f5f60015f8573ffffffffffffffffffffffffffffffffffffffff1673ffffffffffffffffffffffffffffffffffffffff1681526020019081526020015f205f9054906101000a900473ffffffffffffffffffffffffffffffffffffffff1690505f8173ffffffffffffffffffffffffffffffffffffffff1673__$1f06ac8d622ce42796cee98ba1044ce165$__632ba1c96a90916040518263ffffffff1660e01b815260040161107d9190611c58565b60a060405180830381865af4158015611098573d5f5f3e3d5ffd5b505050506040513d601f19601f820116820180604052508101906110bc9190611ce3565b505050915050670de0b6b3a7640000846402540be400836110dd9190611b2c565b6110e79190611b2c565b6110f19190611b9a565b9250505092915050565b5f611105826111c5565b9050919050565b5f5f830361113c577fffffffffffffffffffffffffffffffffffffffffffffffffffffffffffffffff905061117b565b5f606460508461114c9190611b2c565b6111569190611b9a565b905083670de0b6b3a76400008261116d9190611b2c565b6111779190611b9a565b9150505b92915050565b60025f54036111bc576040517f3ee5aeb500000000000000000000000000000000000000000000000000000000815260040160405180910390fd5b60025f81905550565b5f5f5f6111d1846116df565b915091506111df828261110c565b92505050919050565b8260035f8373ffffffffffffffffffffffffffffffffffffffff1673ffffffffffffffffffffffffffffffffffffffff1681526020019081526020015f205f8282546112349190611e43565b925050819055505f7f000000000000000000000000000000000000000000000000000000000000000073ffffffffffffffffffffffffffffffffffffffff166323b872dd8430876040518463ffffffff1660e01b815260040161129993929190611d87565b6020604051808303815f875af11580156112b5573d5f5f3e3d5ffd5b505050506040513d601f19601f820116820180604052508101906112d99190611df1565b90508173ffffffffffffffffffffffffffffffffffffffff168373ffffffffffffffffffffffffffffffffffffffff16857fa2eb7d83461e2aa2b1ed77993bc1ce826d2b4718f786171588381ca0491dde3260405160405180910390a48061136d576040517f4dc34d1700000000000000000000000000000000000000000000000000000000815260040160405180910390fd5b7f000000000000000000000000000000000000000000000000000000000000000073ffffffffffffffffffffffffffffffffffffffff166342966c68856040518263ffffffff1660e01b81526004016113c691906117b5565b5f604051808303815f87803b1580156113dd575f5ffd5b505af11580156113ef573d5f5f3e3d5ffd5b5050505050505050565b5f60025f8473ffffffffffffffffffffffffffffffffffffffff1673ffffffffffffffffffffffffffffffffffffffff1681526020019081526020015f205f8673ffffffffffffffffffffffffffffffffffffffff1673ffffffffffffffffffffffffffffffffffffffff1681526020019081526020015f20549050808411156114af576040517f1bcbd36f00000000000000000000000000000000000000000000000000000000815260040160405180910390fd5b83816114bb9190611e43565b60025f8573ffffffffffffffffffffffffffffffffffffffff1673ffffffffffffffffffffffffffffffffffffffff1681526020019081526020015f205f8773ffffffffffffffffffffffffffffffffffffffff1673ffffffffffffffffffffffffffffffffffffffff1681526020019081526020015f20819055508473ffffffffffffffffffffffffffffffffffffffff168273ffffffffffffffffffffffffffffffffffffffff168473ffffffffffffffffffffffffffffffffffffffff167fb292db12b8dfa23b760ee5e3bd1d3be184cd8f0eeeacd27ce120d4de4e4721f6876040516115ab91906117b5565b60405180910390a45f8573ffffffffffffffffffffffffffffffffffffffff1663a9059cbb84876040518363ffffffff1660e01b81526004016115ef929190611e1c565b6020604051808303815f875af115801561160b573d5f5f3e3d5ffd5b505050506040513d601f19601f8201168201806040525081019061162f9190611df1565b905080611668576040517f4dc34d1700000000000000000000000000000000000000000000000000000000815260040160405180910390fd5b61167184611679565b505050505050565b5f611683826111c5565b9050670de0b6b3a76400008110156116d257806040517fe580cc610000000000000000000000000000000000000000000000000000000081526004016116c991906117b5565b60405180910390fd5b5050565b60015f81905550565b5f5f60035f8473ffffffffffffffffffffffffffffffffffffffff1673ffffffffffffffffffffffffffffffffffffffff1681526020019081526020015f2054915061172a836108dd565b9050915091565b5f5ffd5b5f819050919050565b61174781611735565b8114611751575f5ffd5b50565b5f813590506117628161173e565b92915050565b5f5f6040838503121561177e5761177d611731565b5b5f61178b85828601611754565b925050602061179c85828601611754565b9150509250929050565b6117af81611735565b82525050565b5f6020820190506117c85f8301846117a6565b92915050565b5f73ffffffffffffffffffffffffffffffffffffffff82169050919050565b5f6117f7826117ce565b9050919050565b611807816117ed565b8114611811575f5ffd5b50565b5f81359050611822816117fe565b92915050565b5f6020828403121561183d5761183c611731565b5b5f61184a84828501611814565b91505092915050565b5f5f5f6060848603121561186a57611869611731565b5b5f61187786828701611814565b935050602061188886828701611814565b925050604061189986828701611754565b9150509250925092565b5f5f604083850312156118b9576118b8611731565b5b5f6118c685828601611814565b92505060206118d785828601611754565b9150509250929050565b5f5f604083850312156118f7576118f6611731565b5b5f61190485828601611814565b925050602061191585828601611814565b9150509250929050565b5f5f5f6060848603121561193657611935611731565b5b5f61194386828701611814565b935050602061195486828701611754565b925050604061196586828701611754565b9150509250925092565b611978816117ed565b82525050565b5f6020820190506119915f83018461196f565b92915050565b5f6040820190506119aa5f8301856117a6565b6119b760208301846117a6565b9392505050565b5f81519050919050565b5f82825260208201905092915050565b5f819050602082019050919050565b6119f0816117ed565b82525050565b5f611a0183836119e7565b60208301905092915050565b5f602082019050919050565b5f611a23826119be565b611a2d81856119c8565b9350611a38836119d8565b805f5b83811015611a68578151611a4f88826119f6565b9750611a5a83611a0d565b925050600181019050611a3b565b5085935050505092915050565b5f6020820190508181035f830152611a8d8184611a19565b905092915050565b5f60208284031215611aaa57611aa9611731565b5b5f611ab784828501611754565b91505092915050565b5f81519050611ace8161173e565b92915050565b5f60208284031215611ae957611ae8611731565b5b5f611af684828501611ac0565b91505092915050565b7f4e487b71000000000000000000000000000000000000000000000000000000005f52601160045260245ffd5b5f611b3682611735565b9150611b4183611735565b9250828202611b4f81611735565b91508282048414831517611b6657611b65611aff565b5b5092915050565b7f4e487b71000000000000000000000000000000000000000000000000000000005f52601260045260245ffd5b5f611ba482611735565b9150611baf83611735565b925082611bbf57611bbe611b6d565b5b828204905092915050565b5f611bd482611735565b9150611bdf83611735565b9250828201905080821115611bf757611bf6611aff565b5b92915050565b5f819050919050565b5f611c20611c1b611c16846117ce565b611bfd565b6117ce565b9050919050565b5f611c3182611c06565b9050919050565b5f611c4282611c27565b9050919050565b611c5281611c38565b82525050565b5f602082019050611c6b5f830184611c49565b92915050565b5f69ffffffffffffffffffff82169050919050565b611c8f81611c71565b8114611c99575f5ffd5b50565b5f81519050611caa81611c86565b92915050565b5f819050919050565b611cc281611cb0565b8114611ccc575f5ffd5b50565b5f81519050611cdd81611cb9565b92915050565b5f5f5f5f5f60a08688031215611cfc57611cfb611731565b5b5f611d0988828901611c9c565b9550506020611d1a88828901611ccf565b9450506040611d2b88828901611ac0565b9350506060611d3c88828901611ac0565b9250506080611d4d88828901611c9c565b9150509295509295909350565b7f4e487b71000000000000000000000000000000000000000000000000000000005f52603260045260245ffd5b5f606082019050611d9a5f83018661196f565b611da7602083018561196f565b611db460408301846117a6565b949350505050565b5f8115159050919050565b611dd081611dbc565b8114611dda575f5ffd5b50565b5f81519050611deb81611dc7565b92915050565b5f60208284031215611e0657611e05611731565b5b5f611e1384828501611ddd565b91505092915050565b5f604082019050611e2f5f83018561196f565b611e3c60208301846117a6565b9392505050565b5f611e4d82611735565b9150611e5883611735565b9250828203905081811115611e7057611e6f611aff565b5b9291505056fea2646970667358221220370eb36e2bc5aba48d34fface1a3b8286bb93c81ca3336c975f330de067dfb5064736f6c634300081e0033","linkReferences":{"src/libraries/OracleLib.sol":{"OracleLib":[{"start":3137,"length":20},{"start":5502,"length":20}]}}},"methodIdentifiers":{"burnDsc(uint256)":"f6876608","burnDscAndRedeemCollateral(address,uint256,uint256)":"536de245","calculateHealthFactor(uint256,uint256)":"01f72884","depositCollateral(address,uint256)":"a5d5db0c","depositCollateralAndMintDsc(address,uint256,uint256)":"e90db8a3","getAccountCollateralValue(address)":"7d1a4450","getAccountInformation(address)":"7be564fc","getCollateralDeposited(address,address)":"4b9085af","getCollateralTokens()":"b58eb63f","getDSCMinted(address)":"0b57837d","getHealthFactor(address)":"fe6bcd7c","getLiquidationThreshold()":"4ae9b8bc","getMinHealthFactor()":"8c1ae6c8","getPrecision()":"9670c0bc","getPriceFeed(address)":"5b6cca80","getTokenAmountFromDSC(address,uint256)":"30adffde","getUSDValue(address,uint256)":"fa76dcf2","liquidate(address,address,uint256)":"26c01303","mintDsc(uint256)":"c9b7c327","redeemCollateral(address,uint256)":"9acd81b3"},"id":35}